:020000040800F2
:10000000E821002065020008913000087D140008F6
:10001000612D00088D090008FD5C0008000000004B
:100020000000000000000000000000001F45000864
:10003000850E0008000000008B3300089D5000086A
:100040007F0200087F0200087F0200087F0200088C
:100050007F0200087F0200087F0200087F0200087C
:100060007F0200087F0200087F0200087F0200086C
:100070007F020008F90D00087F0200087F020008D7
:100080007F0200087F020008510500087F02000877
:10009000F15C00087F0200087F0200087F02000870
:1000A0007F0200087F020008B95500087F0200089F
:1000B0007F0200087F0200087F0200087F0200081C
:1000C0007F0200087F0200087F0200087F0200080C
:1000D0007F02000879580008AD590008C15A00088D
:1000E0007F0200087F0200087F0200087F020008EC
:1000F0007F0200087F0200087F0200087F020008DC
:100100007F0200087F0200087F0200087F020008CB
:10011000155800087F0200087F020008C555000836
:100120007F020008290E00087F0200087F020008F5
:100130007F0200087F0200087F0200087F0200089B
:1001400000000000000000000000000000000000AF
:100150007F0200087F0200087F0200087F0200087B
:100160007F0200087F0200087F0200084D0E000891
:100170007F0200087F0200087F0200087F0200085B
:100180007F02000800F002F800F05CF80AA090E896
:10019000000C82448344AAF10107DA4501D100F042
:1001A00051F8AFF2090EBAE80F0013F0010F18BFB3
:1001B000FB1A43F00103184704A0000024A000002C
:1001C0000A444FF0000C10F8013B13F0070408BF7D
:1001D00010F8014B1D1108BF10F8015B641E05D01B
:1001E00010F8016B641E01F8016BF9D113F0080FD0
:1001F0001EBF10F8014BAD1C0C1B09D16D1E58BF62
:1002000001F801CBFAD505E014F8016B01F8016B98
:100210006D1EF9D59142D6D370470000002300240B
:1002200000250026103A28BF78C1FBD8520728BF06
:1002300030C148BF0B6070471FB509F00EFD1FBDF0
:1002400010B510BD00F042F91146FFF7F5FF07F0B9
:10025000A3FA00F074F903B4FFF7F2FF03BC06F051
:1002600047FB00000948804709480047FEE7FEE7D2
:10027000FEE7FEE7FEE7FEE7FEE7FEE7FEE7FEE756
:1002800004480549054A064B70470000A150000884
:1002900085010008E81B0020E8210020E81D00205F
:1002A000E81D0020704700000FB4044910B503AAF0
:1002B000029800F0A3F810BC5DF814FB20000020A9
:1002C000032A40F2308010F0030C00F0158011F882
:1002D000013BBCF1020F624498BF11F801CB00F85A
:1002E000013B38BF11F8013BA2F1040298BF00F8AE
:1002F00001CB38BF00F8013B11F0030300F0908000
:10030000083AC0F0088051F8043B083A51F804CB91
:10031000A0E80810F5E7121D5CBF51F8043B40F857
:10032000043BAFF30080D20724BF11F8013B11F862
:1003300001CB48BF11F8012B24BF00F8013B00F8A6
:1003400001CB48BF00F8012B70474FF00002042991
:10035000C0F0128010F0030C00F01B80CCF1040CF4
:10036000BCF1020F18BF00F8012BA8BF20F8022B28
:10037000A1EB0C0100F00DB85FEAC17C24BF00F8CE
:10038000012B00F8012B48BF00F8012B70474FF0FC
:10039000000200B5134694469646203922BFA0E8D5
:1003A0000C50A0E80C50B1F12001BFF4F7AF0907E1
:1003B00028BFA0E80C5048BF0CC05DF804EB8900D2
:1003C00028BF40F8042B08BF704748BF20F8022B15
:1003D00011F0804F18BF00F8012B7047704770472D
:1003E0007047704710B500F04DF8006810BD10B5AB
:1003F000044600F047F8046010BD0000074B70B5DC
:100400000D467B4400F047F80446284600F056F8B5
:1004100010B14FF0FF3070BD204670BD1771000065
:1004200010B5203AC0F00B80B1E81850203AA0E88F
:100430001850B1E81850A0E81850BFF4F5AF5FEAC3
:10044000027C24BFB1E81850A0E8185044BF18C976
:1004500018C0BDE810405FEA827C24BF51F8043B1D
:1004600040F8043B08BF7047D20728BF31F8023B71
:1004700048BF11F8012B28BF20F8023B48BF00F805
:10048000012B704700487047841B002001694A1CFB
:1004900002610878704700B58FB0CDE901310021C5
:1004A000059105497944CDE903101146684600F0ED
:1004B00032F80FB000BD0000E5FFFFFF007B00F049
:1004C0008000704700487047841B00207546FFF786
:1004D000F9FFAE4605006946534620F00700854601
:1004E00018B020B5FFF7CCFEBDE820404FF0000665
:1004F0004FF000074FF000084FF0000B21F007010C
:10050000AC46ACE8C009ACE8C009ACE8C009ACE84E
:10051000C0098D4670472DE9F04106460024D6E912
:100520000170F5688046304603E04146B847641CD8
:100530003046A8470028F8D12046BDE8F08110B524
:100540000446AFF300802046BDE81040FFF783BEAD
:1005500010B5104C0421204606F093FA38B104215E
:10056000204606F08BFA03F015FE01F067FC0A4CFA
:100570000421204606F085FA002809D004212046EF
:1005800006F07CFA03F060FEBDE8104001F0E4BF25
:1005900010BD0000002401400028014010B500F00B
:1005A0001BFCBDE8104005F021B800002DE9F05F0C
:1005B000022000F02BFE022000F068F94E4D40F6BC
:1005C000B831A888401C80B2A880884211D3A98085
:1005D000DFF828C10026BCF89C0030B1012808D102
:1005E000474F0220B98831B106E000F033FF45489B
:1005F0000670BDE8F09F7880DFF80C81012904D1F6
:10060000B8F804200AB9A8F80200B8F804000128D4
:10061000EFD1688841F28832401C80B268809042F5
:10062000E7D33A483A4B01224069DFF8E890DFF817
:10063000E8A03A4C984228DDDAF814B09B4524DD56
:100640007E80A8F80260287878BB2A7089F81B6041
:1006500033483B888384B8F80030C38480F828107E
:1006600080F82920DCF800100160DCF80410C1607B
:10067000DCF80810816142852078800715D4207845
:10068000C00712D105F066FD0FE0984203DA20782A
:1006900040F010002070DAF81400984203DA207855
:1006A00040F02000207089F81C20B96B4FF07E507C
:1006B000814202DCF96B814203DD217841F0400187
:1006C0002170D8F83810814203DCD8F83C10814200
:1006D00003DD207840F0800020706E806E70BE8058
:1006E000A8F80460012000F091FD012000F0CEF890
:1006F000BDE8F05F00F016B84E000020900F00201B
:10070000641A00201A000020AC1A002020160020D5
:1007100000009643581600203C1600207C1600204E
:100720003E10002070B51E4E30781E4CC0064FF0B3
:10073000010502D43078400603D51BA0FFF7B4FDB5
:1007400025703078C00602D43078400603D526A044
:10075000FFF7AAFD25703078800703D532A0FFF798
:10076000A3FD25703078C00703D03AA0FFF79CFDA9
:100770002570207810B94248FFF796FD414890F85F
:100780002402032804D162883F493E4808F0C6FA93
:1007900061883D4805F01EF80020608070BD0000B3
:1007A0007C1600201A0000200D0A4675636BA3A179
:1007B0004D6F746F722E41D0A3D7BCCAA7B0DC2C8A
:1007C000C7EBBDF8D0D0D2BBB4CED3B2BCFED7D429
:1007D000BCEC2CBBF2D5DFD4D9B4CEB3A2CAD4D0F2
:1007E000A3D7BCA3A10D0A000D0A4675636BA3A194
:1007F0004D6F746F722E42D0A3D7BCCAA7B0DC2C49
:10080000C7EBBDF8D0D0D2BBB4CED3B2BCFED7D4E8
:10081000BCEC2CBBF2D5DFD4D9B4CEB3A2CAD4D0B1
:10082000A3D7BCA3A10D0A000D0A4675636BA3A153
:10083000573235517878B4EDCEF32CC7EBBDF8D0F4
:10084000D0D2BBB4CED3B2BCFED7D4BCECA3A10DE6
:100850000A0000000D0A4675636BA3A14D50553682
:10086000353030B4EDCEF32CC7EBBDF8D0D0D2BBD1
:10087000B4CED3B2BCFED7D4BCECA3A10D0A000009
:1008800068A10008DC1600207C0B002070B5024631
:1008900000253C483C4C4FF40041002A0ED0012A70
:1008A00010D0022A12D040F2DC53032A1CD04FF49D
:1008B0009676042A26D0052A3CD058E006F0D0FED1
:1008C000A58054E006F0CAFEA58050E0A288642A04
:1008D00002D206F0C3FE4AE002D106F0C1FE46E0B5
:1008E000C82A44D3A58042E0A288642A02D206F036
:1008F000B5FE3CE002D106F0B3FE38E09A4236D3B2
:10090000A58034E0A288642A02D206F0A7FE2EE079
:1009100002D106F0A5FE2AE0C82A04D0B24205D1D1
:1009200006F09EFE23E006F099FE20E09A421ED3D8
:10093000A5801CE0A288642A02D206F08FFE16E091
:1009400002D106F08DFE12E0C82A04D0B24205D1D1
:1009500006F086FE0BE006F081FE08E0B2F5C87FE7
:1009600009D0B2F5FA7F09D09A4200D3A580A088B9
:10097000401CA08070BD06F071FEF8E706F070FE26
:10098000F5E70000001001400C000020FEE7000029
:100990002DE9F04779480024794D0178012928D1C3
:1009A0000470784E3078A02823D17078AA2820D1FE
:1009B000307966281DD1B07800F5D871C9B2F278C7
:1009C0008A4214D199213171E8760B280FD066281C
:1009D0000DD00521304604F0FDFE6B4890F824024E
:1009E000032804D105223146674808F097F934609E
:1009F0003471E87E6549664ADFF898C14FF0010816
:100A00009FED650A654B664F07287CD00ADC654E72
:100A10004FF00209072813D2DFE800F01241464ADE
:100A20004E527C00604EDFF884910B286CD009DCBC
:100A30004FF00303092868D00A2801D15380EC76CF
:100A4000BDE8F0870C287CD06628F9D187F80180B2
:100A5000AC762C83564880ED000A564880ED000A9B
:100A6000347089F80040EC76ACF89C408C8094801F
:100A70004C805480187820F010001870187820F0FE
:100A800020001870187820F040001870187820F0B6
:100A900080001870BC80BDE8F04703F08DBD00F009
:100AA000D9FCEC763C70CBE7A1F80290EC76C7E776
:100AB000A2F80290EC76C3E74C805480EC76BFE756
:100AC00038780028BCD187F80080EC760888B0849C
:100AD0001088F084087986F82800107986F82900B3
:100AE000DCF800003060DCF80400F060DCF808009E
:100AF000B061BCF89C00708518788007A0D4187885
:100B0000C0079DD002E01BE023E01FE0BDE8F047F6
:100B100005F020BB3878002892D187F80080EC7669
:100B2000B484F48486F8284086F829403460F46060
:100B3000B46174854C805480BDE8F04705F00ABB71
:100B400000E013E085F82380EC7679E74B80EC76C3
:100B500076E74C805480347089F800400C20E876A9
:100B600015480470BDE8F04703F05CBD05204880DF
:100B70005080347089F80040EC7661E71400002062
:100B800058160020F4090020DC160020641A00200A
:100B9000AC1A0020900F0020000000007C160020FE
:100BA0004E0000203E1000206F0000207100002049
:100BB000880000208C0000201A0000202DE9FC4154
:100BC00001213F4806F0E8FA3D480121801C06F06B
:100BD000E3FA684606F05CFD01268DF80760002503
:100BE0008DF8045010248DF80640A02000901820A5
:100BF0008DF80500334F6946384606F054FDA021B4
:100C0000384606F02DFD8DF807608DF804508DF8FC
:100C10000640009404248DF805402B4F6946384661
:100C200006F041FD1021384606F01AFD8DF80760E8
:100C30008DF804508DF80650282000908DF805405E
:100C40006946384606F02FFD052006F031FB0821E5
:100C5000384606F07BFD1D4C60701021384606F0CA
:100C600075FDA0702021384606F070FDE0706278B6
:100C7000A17842EA0103034301D02AB108E02570BC
:100C800001F0E0FEBDE8FC81012901D1012802D07C
:100C9000012A04D007E0267004F018FCF2E70129CD
:100CA00001D1012807D00A48017841F00401017000
:100CB00001F0C8FEE6E70220207002F001F8E1E74B
:100CC0000300180000140140000C01402C0000201B
:100CD0007C16002010B52DED028B04469FED3B0ADB
:100CE000B0EE408AD4ED100AB0EE600A05F078FC50
:100CF00084ED030AD4ED100AB0EE600A05F0BEFBE5
:100D000084ED040A94ED090AD4ED0A0A30EE200AB3
:100D1000D4ED0B0A30EE200ADFED2D0A20EE200A7A
:100D2000B0EE408A94ED090A30EE480A84ED0C0AD0
:100D300094ED090A30EE480AD4ED0A0A70EEC80AAA
:100D4000B0EE001A00EE810ADFED220A20EE200A42
:100D500084ED0D0A94ED0C0AD4ED040A20EE200A6D
:100D6000D4ED0D0A94ED031A00EE810A84ED0E0A0B
:100D700094ED0D0AD4ED040A20EE200AD4ED0C0AFD
:100D800094ED031A00EEC10A84ED0F0A94ED050AF2
:100D9000D4ED040A20EE200AD4ED060A94ED031ADD
:100DA00000EEC10A84ED070A94ED060AD4ED040AA8
:100DB00020EE200AD4ED050A94ED031A00EE810A14
:100DC00084ED080ABDEC028B10BD0000000000009D
:100DD000ABAAAA3E3ACD133F10B506F043FC06F08D
:100DE00081FA05F0EBFDBDE810400121014805F056
:100DF00039BF0000003C014010B54FF4007420469C
:100E000006F0CEFA002809D00021054806F064FA61
:100E1000204606F0B5FA03490020087010BD000016
:100E2000300002406800002010B5064C204606F055
:100E3000B7FA002805D0204606F0A2FA02490020A1
:100E4000087110BD200000101200002070B54FF096
:100E50008156304606F0A4FA094D002420B13046F0
:100E600006F08EFA6C7170BD4FF09056304606F069
:100E700097FA0028F7D0304606F082FAAC7170BDC0
:100E8000120000207047000010B586B001211848FC
:100E900006F082F9174C204606F00EFB01A806F07A
:100EA00062FA8020ADF80E000021ADF80C10124857
:100EB00002908DF8131001228DF811200F48019037
:100EC0008DF812108DF810108DF815208DF8141073
:100ED00001A9204606F0B8FA06481922012108386F
:100EE00006F070FA0121204606F0F6F906B010BDB2
:100EF000010014000804024074020020043801407C
:100F000010B586B00121184806F046F9174C204666
:100F100006F0D2FA01A806F026FA8020ADF80E00FD
:100F20000021ADF80C10124802908DF81310012228
:100F30008DF811200F4801908DF812108DF81010C7
:100F40008DF815208DF8141001A9204606F07CFAC2
:100F500006481B220321303806F034FA01212046CE
:100F600006F0BAF906B010BD0100140030040240CA
:100F7000740300200444004010B586B001211848D5
:100F800006F00AF9174C204606F096FA01A806F07A
:100F9000EAF98020ADF80E000021ADF80C101248DF
:100FA00002908DF8131001228DF811200F48019046
:100FB0008DF812108DF810108DF815208DF8141082
:100FC00001A9204606F040FA06481D22052158389E
:100FD00006F0F8F90121204606F07EF906B010BDB2
:100FE0000100140058040240F407002004480040A7
:100FF00010B586B00121184806F0CEF8174C2046EF
:1010000006F05AFA01A806F0AEF98020ADF80E00FD
:101010000021ADF80C10124802908DF81310012237
:101020008DF811200F4801908DF812108DF81010D6
:101030008DF815208DF8141001A9204606F004FA49
:1010400006481F220421443806F0BCF9012120463D
:1010500006F042F906B010BD01001400440402403D
:10106000F4080020044C004010B586B001211D4852
:1010700006F092F81C4C204606F01EFA01A806F075
:1010800072F98020ADF80E001020ADF80C00174862
:10109000029000218DF8131001228DF811201448C0
:1010A00001908DF812108DF810108DF815208DF824
:1010B000141001A9204606F0C7F90B481A22022194
:1010C0001C3806F07FF9032006F0ACFB0022032158
:1010D000392006F06BFB01220221204606F0E2F9DE
:1010E00006B010BD010014001C040240F4010020F1
:1010F0000438014010B586B001211D4806F04CF8B7
:101100001C4C204606F0D8F901A806F02CF98020E6
:10111000ADF80E001020ADF80C0017480290002129
:101120008DF8131001228DF81120144801908DF8CC
:1011300012108DF810108DF815208DF8141001A9DB
:10114000204606F081F90B481E2206216C3806F075
:1011500039F9032006F066FB022203214B2006F03A
:1011600025FB01220221204606F09CF906B010BDA5
:10117000010014006C040240F40300200448004005
:1011800010B586B001211D4806F006F81C4C20461B
:1011900006F092F901A806F0E6F88020ADF80E00FE
:1011A0001020ADF80C001748029000218DF81310A4
:1011B00001228DF81120144801908DF812108DF83D
:1011C00010108DF815208DF8141001A9204606F096
:1011D0003BF90B4820220721803806F0F3F8032062
:1011E00006F020FB032211464B2006F0DFFA012215
:1011F0000221204606F056F906B010BD0100140089
:101200008004024074080020044C004070B502467F
:1012100000253C483C4C4FF48041002A0ED0012A66
:1012200010D0022A12D040F2DC53032A1CD04FF413
:101230009676042A26D0052A3CD058E006F010FA0B
:10124000658054E006F00AFA658050E06288642AFE
:1012500002D206F003FA4AE002D106F001FA46E0B3
:10126000C82A44D3658042E06288642A02D206F02C
:10127000F5F93CE002D106F0F3F938E09A4236D3B2
:10128000658034E06288642A02D206F0E7F92EE035
:1012900002D106F0E5F92AE0C82A04D0B24205D10D
:1012A00006F0DEF923E006F0D9F920E09A421ED3D9
:1012B00065801CE06288642A02D206F0CFF916E04D
:1012C00002D106F0CDF912E0C82A04D0B24205D10D
:1012D00006F0C6F90BE006F0C1F908E0B2F5C87FE8
:1012E00009D0B2F5FA7F09D09A4200D365806088B0
:1012F000401C608070BD06F0B1F9F8E706F0B0F967
:10130000F5E70000001001400C000020194800889B
:1013100000EE100AF8EE400A9FED170A20EE800A50
:10132000DFED160A20EE200AB2EE041A1448F0EEA1
:10133000400A40EE010AC0ED000A90ED010ADFED1F
:10134000111A30EEC01A01EE210A80ED010A10EEEA
:10135000900A0D490D4A01440D48914204D3017889
:1013600041F0080101707047017821F00801017017
:1013700070470000260000203333534000008039BE
:10138000581600200AD7233C9A9919BF9B996900E7
:101390007C1600202DE9F04105460C4F4FF4004625
:1013A0003146384606F05AF9BB2003F069F80024AC
:1013B000FF2003F065F82855641CE4B20E2CF7D327
:1013C00031463846BDE8F04106F04AB90008014010
:1013D0002DE9FC4701211C4805F0DEFE1A480121D9
:1013E000401C05F0D9FE684606F052F901268DF83A
:1013F000076000278DF804704FF010088DF8068004
:10140000B402009404258DF80550DFF84090694639
:10141000484606F048F98DF807608DF804708DF89D
:101420000680802000908DF80550094D69462846B9
:1014300006F039F92146484606F010F98021284681
:1014400006F00EF9BDE8FC87050018000014014005
:1014500000180140084890ED030A80ED000A90ED65
:10146000040A80ED010A90ED050A80ED020A0121CF
:10147000A0F89C1070470000900F0020FEE70000CD
:1014800070B502F0F7FDC0B21438494C042803D3FC
:10149000207840F002002070752000F027F97028B5
:1014A00003D0207840F00100207042A0FEF7FCFE3F
:1014B000474D287810B94748FEF7F6FE28780128EE
:1014C00002D14548FEF7F0FE2878022802D14348B1
:1014D000FEF7EAFE2078424D80074FF0010603D563
:1014E0004048FEF7E1FE2E702078C00703D03E484A
:1014F000FEF7DAFE2E702078000703D53B48FEF792
:10150000D3FE2E702078400703D53948FEF7CCFE75
:101510002E702078C00603D53648FEF7C5FE2E7023
:101520002078800603D53448FEF7BEFE2E70207862
:10153000400603D53148FEF7B7FE2E70207800062E
:1015400003D52F48FEF7B0FE2E70287810B92DA0D5
:10155000FEF7AAFE374890F82402032804D16A88CF
:101560003549344807F0DAFB6988334804F032F92A
:1015700000206880217821F002012170217821F07B
:1015800001012170217821F008012170217821F0DA
:1015900010012170217821F020012170217821F0A3
:1015A00040012170217821F080012170287070BDE8
:1015B0007C1600200D0AD3B2BCFED7D4BCECCDEA19
:1015C000B1CF2CBDE1B9FBC8E7CFC23A0D0A00008C
:1015D0002C000020F49D0008849D0008189D000840
:1015E0001A000020BC9C00081C9F0008CC9E00082C
:1015F000609E0008E8A0000868A00008609F00083E
:10160000E49F00080D0AB9A7CFB2C4E3A3A1D4DDBB
:10161000CAB1CEDEB7A2CFD6D2ECB3A32CBFC9D20B
:10162000D4B3A2CAD4BDF8D0D0D0A3D7BCA3A10D47
:101630000A000000DC1600207C0B002070B50A2494
:1016400002F0A8FE274D0BE0641EE4B2752000F006
:101650004DF82870012005F02BFE032002F07AF8E7
:10166000002CF1D1002002F075F82878702809D0FC
:101670001D48017841F001010170BDE87040012072
:1016800002F068B80A2005F013FE80216B2000F0FC
:1016900047F80A2005F00CFE01216B2000F040F80D
:1016A0000A2005F005FE0721682000F039F80A201D
:1016B00005F0FEFD00211A2000F032F80A2005F0A6
:1016C000F7FD18211B2000F02BF80A2005F0F0FD93
:1016D00010211C2000F024F8BDE870400A2005F01D
:1016E000E7BD0000460000207C16002070B50446CF
:1016F0000A4E4FF400452946304605F0AFFF44F04E
:10170000800002F0BDFEFF2002F0BAFE044629462A
:10171000304605F0A5FF204670BD000000080140DE
:101720002DE9F04107460E460A4D4FF4004421468C
:10173000284605F093FF384602F0A2FE07463046E1
:1017400002F09EFE2146284605F08AFF3846BDE895
:10175000F0810000000801402DE9F041C448FFF786
:1017600019FEC348A0F182044178027841EA0221BF
:1017700009B22186C278837842EA032212B26286D5
:101780004379057943EA05231BB2A386457A067A95
:1017900045EA06252EB22680C57A877A45EA0725CE
:1017A0002FB26780457B007B45EA002000B2A08015
:1017B000B4F87EC01E3C9FEDAF0ADFEDAF2A9FED6F
:1017C000AF2A0125BCF1010F03D0BCF1000F7DD081
:1017D00002E194F89EC0BCF1000F12D1103484F8DD
:1017E0008E50D4ED050A44ED010AD4ED060AC4ED8D
:1017F000000AD4ED070AC4ED010A21876287A38796
:10180000103C00EE906AB8EEE01AC1EE000A94EDCA
:10181000001A70EEC11AC4ED091A00EE907AB8EE03
:10182000E01AC1EE000A94ED011A30EEC11A84EDFF
:101830000A1A00EE900AF8EEE00A80EE803A94ED83
:10184000020A73EE400AC4ED0B0A94ED030A31EE6E
:10185000C03AF6EE001A03EE210A84ED030A94ED75
:10186000040A31EE401A01EE210A84ED040A94EDD7
:10187000050A70EEC00A00EEA10A84ED050A00EE2A
:10188000101AB8EEC00A60EE220AC4ED150A00EE86
:10189000102AB8EEC00A60EE221AC4ED161A00EE45
:1018A000103AB8EEC00A20EE221A84ED171A94ED11
:1018B0000F0A70EEC00A00EE820A84ED0F0A94ED62
:1018C000100A71EEC00A00EE820A00E00AE084ED20
:1018D000100A94ED110A71EE400A00EE820A84EDBE
:1018E000110A79E094F89EC0BCF1000F12D11034B7
:1018F00084F88E50D4ED050A44ED010AD4ED060AB1
:10190000C4ED000AD4ED070AC4ED010A21876287FD
:10191000A387103C00EE906AB8EEE01AC1EE000A10
:10192000C4ED090A01EE107AB8EEC11AC1EE001A30
:10193000C4ED0A1A01EE100AB8EEC13A83EE001A9D
:1019400084ED0B1A94ED030A30EEC03ADFED4C0A39
:1019500003EE200A84ED030A94ED040A71EEC01A26
:1019600001EEA00A84ED040A94ED050A31EE401A56
:1019700001EE200A84ED050A00EE101AB8EEC00A46
:1019800020EE221A84ED151A00EE102AB8EEC00AD5
:1019900060EE221AC4ED161A00EE103AB8EEC00A34
:1019A00060EE220AC4ED170A94ED0F0A31EE401AD8
:1019B00001EE020A84ED0F0A94ED100A31EEC01A0E
:1019C00001EE020A84ED100A94ED110A70EEC00ACD
:1019D00000EE820A84ED110AD4ED110A94ED0F0A8B
:1019E00004F0F6FBDFED270A20EE200A84ED1C0A46
:1019F0002548017811B9057084ED190AF0EEC00A86
:101A000010EE900A2149884203DD84ED190ABDE8F1
:101A1000F08194ED191AD4ED0A1ADFED1D0A01EEDA
:101A2000A01ADFED1C1A21EE211A00EE201A84ED17
:101A3000191A94ED1A0A94ED0B1A01EE200A84ED9E
:101A40001A0A10EE100A1449DFED140A884204DD68
:101A500030EE600A84ED1A0AD9E710EE100A104938
:101A60008842D4D930EE200A84ED1A0ACFE700006C
:101A70003010002033338341000080390AD7233CE3
:101A8000CDCC4C3DE12E65C2470000200000B442A1
:101A90006F12833A77BE7F3F000034430000B443A7
:101AA000000034C37CB501210E4805F075FB684683
:101AB00005F0EEFD01208DF8070000208DF80400F0
:101AC0008DF806004FF40064009418208DF805008E
:101AD000054D6946284605F0E6FD2146284605F0F5
:101AE000BFFD7CBD05001800001401402DE9F04148
:101AF0002E4E4FF400673946304605F027FE2C4D38
:101B00000024A0BB6A88A888824246D2521C6A8000
:101B10003946304605F01AFE002845D16888A98864
:101B2000884241D32A78234FC8214FF48068FAB104
:101B3000012A39D12C7020484480204844807963A0
:101B40004FF4967005F0B4FB7C63012001F002FEB7
:101B50000020FFF75BFB0020FEF798FE802118486D
:101B600005F07CFD4146304605F078FDFEE714E0C7
:101B7000012028701422AA80124A82F82100796379
:101B8000322005F095FB7C630120FFF73FFB4146C7
:101B90003046BDE8F04105F063BD3946304605F0FA
:101BA000D5FD002800D06C80BDE8F0810014014014
:101BB0004800002000500140641A0020AC1A0020A8
:101BC00000180140581600207CB501210F4805F08F
:101BD000E3FA684605F05CFD01208DF8070000205F
:101BE0008DF8040010208DF806004FF46044009436
:101BF00004208DF80500064D6946284605F053FD82
:101C00002146284605F02CFD7CBD0000040018008C
:101C10000010014000B5B0EE402A0D499FED0D0ABD
:101C20000D48D1ED0E0A01F034FA0B48D0ED0C0A44
:101C3000C1ED050AD1ED0F0AB0EE420A343001F0D1
:101C400028FA0548343090ED0C0A81ED060A00BDF3
:101C5000641A0020000000005015002000B5F0EECE
:101C6000401A0D494878401CC0B24870022811D370
:101C7000002048700948C188094802F051FC084812
:101C8000B0EE610AD0ED050AA0F59C705DF804EB9A
:101C900001F0FFB900BD00006C000020641A0020B4
:101CA0002016002070B52649264A0024C878264D03
:101CB000401CC0B20123C870C82821D3CC70107852
:101CC000400603D5107820F040001070A86B1F4E1E
:101CD000A0F18040B04207D3107840F0400010706F
:101CE0000B716C80AC804C81E86BB0F17C5F07DDE0
:101CF000107840F0400010700B716C80AC804C810B
:101D0000134E286CB0420DDB124EA8683044B0F57B
:101D1000A01F03D9107840F0100010700B716C8078
:101D2000AC804C81488947F23052401C80B24881D7
:101D3000904203D34C810B716C80AC8070BD00006D
:101D40006C0000207C160020641A0020CECC4C00D1
:101D500000003041000056BD2DE9F041304C002616
:101D6000304FA088304D002813D002283AD00128E7
:101D70003FD0032832D16878401CC0B26870022876
:101D80002CD36E70E18807F59C70BDE8F04102F03D
:101D9000C7BB95ED040AB1EE400AFFF75FFF97ED70
:101DA0000C0AFFF737FF2148807E012816D194EDF9
:101DB0000E0A05F0AFFB10EE100AB0F17E5F0FDDEA
:101DC000E879401CC0B2E871C82807D3C820E87180
:101DD00016482430017841F040010170BDE8F081DF
:101DE000EE71FBE79FED120A84ED050A84ED060A09
:101DF000F4E795ED070A0F4910EE100A884205DA5C
:101E0000DFED0D0A30EE200A85ED070A95ED070A91
:101E1000FFF724FF97ED0C0ABDE8F041FFF7FABE8B
:101E2000641A0020E81400206C00002058160020DE
:101E30000000000000001644CDCCCC3D10B5044697
:101E4000FE48008841F2883188422EDAFB4800883B
:101E5000401CFA490880FA48006880B200EE100A77
:101E6000B8EE400AF748D0ED000A70EE600A90ED37
:101E7000000AB6EE001A00EE810A80ED000AF04872
:101E8000001D006880B200EE100AB8EE400AED486E
:101E9000D0ED010A70EE600A90ED010AB6EE001A6C
:101EA00000EE810A80ED010A39E2E7480078012856
:101EB00003D0E648007800287DD1E148006880B270
:101EC00000EE100AB8EE400ADE48D0ED000A30EE0F
:101ED000600ABDEEC00AF8EEC00ADD4890ED000AC7
:101EE0009FEDDC1A00EE810A80ED000AD448001D47
:101EF000006880B200EE100AB8EE400AD148D0ED7A
:101F0000010A30EE600ABDEEC00AF8EEC00AD248FF
:101F100090ED000A9FEDCF1A00EE810A80ED000AD5
:101F2000CE480078401CCD49087008460078022849
:101F3000BADB00200870C64890ED000AF6EE000AF1
:101F400020EE200AC64880ED0B0AC34890ED000A37
:101F5000F6EE000A20EE200AC14880ED0A0A90ED54
:101F60000A0ADFEDC00A30EEC00AD0ED0B0A30EEEF
:101F7000600A80ED090A9FEDBB0AB54880ED000AB2
:101F80009FEDB80AB44880ED000AB54840880128A2
:101F900024D1B34909880819C11700EB5141C9136D
:101FA000A0EBC131AE4AD1801046C08800EE100AC5
:101FB000B8EE400A00E099E1DFEDAB0A20EE200A1E
:101FC000104680ED020A90ED020ADFEDA80A20EE2D
:101FD000200A80ED100AFFF7BFFE7FE1A04840888D
:101FE000022842D19FED9F0A9D4880ED100A90ED96
:101FF000050ADFED9F0AB4EEE00AF1EE10FA14D202
:1020000090ED050ADFED9B0A30EE200A80ED050A0F
:1020100090ED050ADFED960AB4EEE00AF1EE10FA53
:1020200003DB9FED930A80ED050A9FED8E0A8C4835
:1020300080ED060AC4F50040894908808E48008872
:10204000401C80B28C49088044F620618842C4DB81
:1020500000208949088001208149888048809FEDBF
:10206000810A084680ED050A38E17D48408803284A
:1020700037D17B498880084690ED100ADFED7F0A52
:1020800030EE200A80ED100A9FED7D0A80ED050AF2
:102090009FED740A80ED060A90ED100ADFED790AD3
:1020A000B4EEE00AF1EE10FA08DD90ED100ADFED73
:1020B000750A30EE600A80ED100A0FE0684890ED76
:1020C000100AB5EEC00AF1EE10FA07D290ED100A30
:1020D000DFED6C0A30EE200A80ED100A6048C48003
:1020E000FCE05F484088052876D15D4988806248D9
:1020F000008844F62061884231DA5F480088401C3D
:102100005D4908809FED570A554880ED100A90ED13
:10211000050AF4EE000AB4EEE00AF1EE10FA14D269
:1021200090ED050ADFED530A30EE200A80ED050A36
:1021300090ED050ADFED4E0AB4EEE00AF1EE10FA7A
:1021400003DBB4EE000A80ED050A9FED460A444821
:1021500080ED060AC4F5004041490880BEE04648CB
:10216000008844F62061884234DB3D4890ED100A37
:10217000F2EE060AB4EEE00AF1EE10FA07D290EDA4
:10218000100ADFED3E0A30EE200A80ED100A9FEDC6
:102190003C0A334880ED050A9FED320A80ED060ABD
:1021A000014609880819C11700EB5141C913A0EB7A
:1021B000C1312B4AD1801046C08800EE100AB8EE1B
:1021C000400ADFED290A20EE200A104680ED020ABF
:1021D000FFF768FD82E0FFE72148408860BB0020F0
:1021E000254908801E4890ED100AB5EEC00AF1EEB0
:1021F00010FA12DD90ED100ADFED230A30EE600ACE
:1022000080ED100A90ED100AB5EEC00AF1EE10FA5A
:1022100003D89FED140A80ED100A114890ED050ACD
:10222000B5EEC00AF1EE10FA3DDD90ED050ADFEDE6
:10223000110A30EE600A29E050E00000BC010020E5
:102240003C2401409C010020F00100209801002066
:10225000B00100200000843BAC010020C001002040
:10226000641A0020000000000000343CDD35FA3D17
:102270009A99193E17B7D138C20100206F12833ADC
:102280000AD7A33DDA0FC9400AD7233C80ED050ADF
:1022900090ED050AB5EEC00AF1EE10FA03D81FED75
:1022A0000F0A80ED050A1E4890ED060AB5EEC00A39
:1022B000F1EE10FA12DD90ED060A5FED120A30EE33
:1022C000600A80ED060A90ED060AB5EEC00AF1EE4E
:1022D00010FA03D81FED1D0A80ED060A1048FEF71C
:1022E000F9FC00210E4805F033FD18E00D48007898
:1022F000012814D10C4800880C490988884205DA65
:1023000009480088401C0849088001E002F0C2F931
:102310000748FEF7DFFC0021054805F019FD10BD58
:10232000641A002098010020D6010020DA01002064
:10233000F41A002000B5B0EE402A0D499FED0D0AB9
:102340000D48D1ED0E0A00F0A4FE0B48D0ED0C0AAA
:10235000C1ED050AD1ED0F0AB0EE420A343000F0AB
:1023600098FE0548343090ED0C0A81ED060A00BD58
:10237000AC1A002000000000B815002000B5F0EEF7
:10238000401A0D498878401CC0B28870022811D3C9
:10239000002088700948C188094802F0C1F808483F
:1023A000B0EE610AD0ED050AA0F590705DF804EB7F
:1023B00000F06FBE00BD00006C000020AC1A0020D1
:1023C0003C16002070B52649264A00244879264D3F
:1023D000401CC0B201234871C82821D34C71107829
:1023E000000603D5107820F080001070A86B1F4EF7
:1023F000A0F18040B04207D3107840F08000107008
:102400008B716C80AC808C81E86BB0F17C5F07DDF8
:10241000107840F0800010708B716C80AC808C81E3
:10242000134E286CB0420DDB124EA8683044B0F554
:10243000A01F03D9107840F0200010708B716C80C1
:10244000AC808C81888947F23052401C80B28881F0
:10245000904203D38C818B716C80AC8070BD000086
:102460006C0000207C160020AC1A0020CECC4C0062
:1024700000003041000056BD2DE9F0412F4C0026F0
:102480002F4FA0882F4D002813D0022838D00128C4
:102490003DD0032830D1A878401CC0B2A8700228D3
:1024A0002AD3AE70E18807F59070BDE8F04102F0E4
:1024B00037B895ED050AFFF761FF97ED0C0AFFF7B6
:1024C00039FF2148807E012816D194ED0E0A05F0CF
:1024D00021F810EE100AB0F17E5F0FDD287A401C63
:1024E000C0B22872C82807D3C820287216482430E2
:1024F000017841F080010170BDE8F0812E72FBE7A8
:102500009FED120A84ED050A84ED060AF4E795EDC5
:10251000080A0F4910EE100A884205DADFED0D0AAD
:1025200030EE200A85ED080A95ED080AFFF726FF30
:1025300097ED0C0ABDE8F041FFF7FCBEAC1A002095
:102540001C1500206C000020581600200000000020
:1025500000001644CDCCCC3D10B50446FE480088A2
:1025600041F2883188422EDAFB480088401CFA4943
:102570000880FA48006880B200EE100AB8EE400AFF
:10258000F748D0ED000A70EE600A90ED000AB6EE52
:10259000001A00EE810A80ED000AF048001D006874
:1025A00080B200EE100AB8EE400AED48D0ED010A04
:1025B00070EE600A90ED010AB6EE001A00EE810A94
:1025C00080ED010A33E2E7480078012803D0E648AD
:1025D000007800287DD1E148006880B200EE100A42
:1025E000B8EE400ADE48D0ED000A30EE600ABDEEDB
:1025F000C00AF8EEC00ADD4890ED000A9FEDDC1A33
:1026000000EE810A80ED000AD448001D006880B207
:1026100000EE100AB8EE400AD148D0ED010A30EEC3
:10262000600ABDEEC00AF8EEC00AD24890ED000A7A
:102630009FEDCF1A00EE810A80ED000ACE480078A7
:10264000401CCD490870084600780228BADB0020FB
:102650000870C64890ED000AF6EE000A20EE200A47
:10266000C64880ED0B0AC34890ED000AF6EE000A5A
:1026700020EE200AC14880ED0A0A90ED0A0ADFED3B
:10268000C00A30EEC00AD0ED0B0A30EE600A80EDD1
:10269000090A9FEDBB0AB54880ED000A9FEDB80A14
:1026A000B44880ED000AB5484088012824D1B349D8
:1026B00009880819C11700EB5141C913A0EBC131BA
:1026C000AE4AD1801046C08800EE100AB8EE400A2B
:1026D00000E099E1DFEDAB0A20EE200A104680ED24
:1026E000020A90ED020ADFEDA80A20EE200A80ED32
:1026F000100AFFF7C1FE7FE1A0484088022842D1BE
:102700009FED9F0A9D4880ED100A90ED050ADFEDD0
:102710009F0AB4EEE00AF1EE10FA14D290ED050A29
:10272000DFED9B0A30EE200A80ED050A90ED050AE8
:10273000DFED960AB4EEE00AF1EE10FA03DB9FED4E
:10274000930A80ED050A9FED8E0A8C4880ED060AFB
:10275000C4F50040894908808E480088401C80B23A
:102760008C49088044F620618842C4DB00208949F6
:10277000088001208149888048809FED810A0846B1
:1027800080ED050A38E17D484088032837D17B4930
:102790008880084690ED100ADFED7F0A30EE200AAF
:1027A00080ED100A9FED7D0A80ED050A9FED740A09
:1027B00080ED060A90ED100ADFED790AB4EEE00A2A
:1027C000F1EE10FA08DD90ED100ADFED750A30EE3B
:1027D000600A80ED100A0FE0684890ED100AB5EE2F
:1027E000C00AF1EE10FA07D290ED100ADFED6C0A84
:1027F00030EE200A80ED100A6048C480FCE05F489B
:102800004088052876D15D4988806248008844F672
:102810002061884231DA5F480088401C5D490880A9
:102820009FED570A554880ED100A90ED050AF4EE29
:10283000000AB4EEE00AF1EE10FA14D290ED050AA7
:10284000DFED530A30EE200A80ED050A90ED050A0F
:10285000F4EE000AB4EEE00AF1EE10FA03DBB4EE97
:10286000000A80ED050A9FED460A444880ED060AFD
:10287000C4F5004041490880BEE04648008844F65F
:102880002061884234DB3D4890ED100AF2EE060AE2
:10289000B4EEE00AF1EE10FA07D290ED100ADFED87
:1028A0003E0A30EE200A80ED100A9FED3C0A3348C4
:1028B00080ED050A9FED320A80ED060A014609887F
:1028C0000819C11700EB5141C913A0EBC1312B4AC4
:1028D000D1801046C08800EE100AB8EE400ADFED45
:1028E000290A20EE200A104680ED020AFFF76AFD51
:1028F00082E0FFE72148408860BB0020254908802E
:102900001E4890ED100AB5EEC00AF1EE10FA12DD85
:1029100090ED100ADFED230A30EE600A80ED100A18
:1029200090ED100AB5EEC00AF1EE10FA03D89FED53
:10293000140A80ED100A114890ED050AB5EEC00AA0
:10294000F1EE10FA3DDD90ED050ADFED110A30EEF3
:10295000600A29E050E00000BE0100203C28014050
:10296000A4010020F001002098010020B8010020FF
:102970000000843BB4010020C1010020AC1A0020FB
:10298000000000000000343CDD35FA3D9A99193E04
:1029900017B7D138C40100206F12833A0AD7A33D7C
:1029A000DA0FC9400AD7233C80ED050A90ED050AED
:1029B000B5EEC00AF1EE10FA03D81FED0F0A80ED54
:1029C000050A1B4890ED060AB5EEC00AF1EE10FAB2
:1029D00012DD90ED060A5FED120A30EE600A80ED1E
:1029E000060A90ED060AB5EEC00AF1EE10FA03D819
:1029F0001FED1D0A80ED060A0D48FEF76BF9012157
:102A00000B4805F0A5F912E00A48007801280ED11C
:102A10000948008809490988884201DB02F0C2F8A8
:102A20000748FEF757F90121054805F091F910BD57
:102A3000AC1A002098010020D8010020DA01002003
:102A40003C1B00207FB50121464804F0A5FB45480A
:102A50000121801C04F0A0FB01214FF4C01004F000
:102A60009BFB684604F014FE01213F4804F076FE0B
:102A700001213E4804F072FE00258DF80450012427
:102A80008DF8074018268DF8056008208DF806009F
:102A9000382000906946364804F005FE8DF807405E
:102AA0008DF8045010208DF80600A02000908DF8BD
:102AB0000560304E6946304604F0F5FDA0213046F1
:102AC00004F0CEFD2C4E0021304605F0B0F825482C
:102AD0000121093004F060FB02A805F09DF88DF893
:102AE00008508DF8094003208DF80A008DF80B502E
:102AF0008DF80C508DF80D408DF80E408DF80F407C
:102B000002A9304605F09FF80121304605F08FF804
:102B10000A2004F0CDFB0024184D05F10B06295DB9
:102B20000022012000F02CF8325D904203D0295D94
:102B3000012000F075F8641CE4B20B2CEFD30024E4
:102B40000022295D022000F01BF8325D904203D084
:102B5000295D022000F064F8641CE4B20B2CEFD372
:102B60007FBD00000300180001041028020310308C
:102B7000000C0140001401400030014030000020F2
:102B800070B51446254E41F04005012802D00228B8
:102B900021D040E02021304604F060FD284601F0BD
:102BA000ADFB204601F0AAFB2021304604F058FD81
:102BB000322004F07DFB2021304604F04FFD002040
:102BC00001F09CFBC4B2002001F098FB20213046AC
:102BD00004F046FD1FE08021304604F03FFD28460A
:102BE00001F08CFB204601F089FB8021304604F087
:102BF00037FD322004F05CFB8021304604F02EFDCE
:102C0000002001F07BFBC4B2002001F077FB8021A3
:102C1000304604F025FD204670BD00000014014040
:102C200070B51446254E41F08005012802D00228D7
:102C300021D040E02021304604F010FD284601F06C
:102C40005DFB204601F05AFB2021304604F008FDD0
:102C5000322004F02DFB2021304604F0FFFC002040
:102C600001F04CFBC4B2002001F048FB20213046AB
:102C700004F0F6FC1FE08021304604F0EFFC28460B
:102C800001F03CFB204601F039FB8021304604F086
:102C9000E7FC322004F00CFB8021304604F0DEFC1F
:102CA000002001F02BFBC4B2002001F027FB8021A3
:102CB000304604F0D5FC204670BD000000140140F1
:102CC0002DE9FC410121234804F066FA2148012145
:102CD000801C04F061FA684604F0DAFC01258DF8E6
:102CE000075000248DF8044010268DF80660A020BF
:102CF000009018278DF80570DFF85C806946404623
:102D000004F0D1FCA021404604F0AAFC8DF8075045
:102D10008DF804408DF80640009628208DF80500B7
:102D2000DFF838806946404604F0BDFC8DF8075056
:102D30008DF804408DF80660082000908DF805702D
:102D40006946404604F0AFFC0821404604F088FC88
:102D5000BDE8FC810300180000140140000C014094
:102D6000FEE700002DE9F05F2DED048B4FF0000A27
:102D7000B74DB84EB84CA06906F0FEFE41EC180BFA
:102D8000686E06F0F9FE41EC100B03F01FFC53ECEB
:102D9000182B51EC100B06F05FFE40D296F8220083
:102DA000012807D186F822A0B0EE000A84ED060AB9
:102DB00086F81DA00120F077707F01282FD195EDB6
:102DC000030A04F0A7FB10EE100A4FF07F57B84239
:102DD00023DA95ED040A04F09DFB10EE100AB842C8
:102DE0001BDA95ED050A04F095FB10EE101A9B48CE
:102DF000814212DA96F82000401CC0B286F820000A
:102E000064280CD386F820A086F81DA09448A0F86A
:102E100004A09448A0F804A001E086F820A0924FF6
:102E2000707F07F5D07107F1340801F11C0B4FF0EA
:102E300002099FED8E8A18B996F82120012A02D046
:102E4000012878D0EAE02078401CC0B22070022827
:102E50004BD384F800A0F07F012846D191ED060AFB
:102E6000DBED068A30EE689A86ED049ADFF800A260
:102E7000D6ED051A9AED031A61EE219AC6ED029A73
:102E80009AED052A62EE211AC6ED031A04F042FB00
:102E900010EE100ADFF8DCB1584507DCB0EE680A26
:102EA00004F038FB10EE100A58450BDD9AF81800B4
:102EB00040B99AF8190028B96F49686C884201DD59
:102EC000012070776848B0EE691AF0EE490AB0EE5A
:102ED000480A383800F03EF995ED0B1A96ED030AD2
:102EE000F0EE480A604800F0D7F995ED190A5E48FF
:102EF00095ED0A1AF1EE400AB0EE480A343000F0BF
:102F0000CBF95948D8ED0C0A383897ED0C1A90EDEA
:102F10000C0A70EE800A70EE810AC4ED040AD8ED46
:102F20000C0A30EE800AD7ED0C0A30EE600A84ED10
:102F3000050A73E0FFE796F82200012801D088B364
:102F40006CE095ED190AB5EEC00AF1EE10FA0BDD52
:102F500010EE100A4949884206DA9FED490A84EDCD
:102F6000040A84ED050A16E0B5EEC00AF1EE10FA87
:102F70000BD210EE100A4349884206D29FED420A56
:102F800084ED040A84ED050A05E09FED400A84ED16
:102F9000040A84ED050A3248A0F804A03148A0F8DC
:102FA00004A03BE0FFE784ED048A84ED058A0D462A
:102FB00091ED050A04F0AEFA10EE100A274EB04269
:102FC0000DDA9BED050A04F0A5FA10EE100AB042E6
:102FD00005DA2348A0F804902248A0F804901D4880
:102FE00080ED048A80F81FA0B2EE040A84ED060A80
:102FF00085F802A08BF802A088ED038A88ED0C8A80
:10300000A0F5047080ED038A80ED0C8A87ED038AB9
:1030100087ED0C8A85ED068A8BED068A0D482430F3
:103020000178C90705D10178490602D40078000665
:1030300009D584ED048A84ED058A0948A0F8049036
:103040000848A0F80490BDEC048BBDE8F09F000098
:10305000900F0020581600206C0000200000A040B7
:10306000641A0020AC1A0020801400200000000028
:10307000C0160020000061453333833F00002F431A
:103080000000614500002FC3000061C50000E1455C
:10309000704770EE600A90ED000A20EE200A90ED75
:1030A000031AD0ED011A00EEA11A80ED031AD0ED3B
:1030B000040AF4EEC00AF1EE10FA02DD90ED040A03
:1030C00008E0D0ED050AF4EEC00AF1EE10FA01D2E4
:1030D00090ED050AD0ED030A90ED061AF4EEC10A50
:1030E000F1EE10FA04D2D0ED060AC0ED030A0CE0AE
:1030F000D0ED030A90ED071AF4EEC10AF1EE10FAD2
:1031000003DDD0ED070AC0ED030AD0ED030A30EE6F
:10311000800A80ED0C0A90ED0C0AD0ED0B0AB4EE9B
:10312000E00AF1EE10FA04DD90ED0B0A80ED0C0AD6
:103130000CE090ED0C0AD0ED0A0AB4EEE00AF1EED4
:1031400010FA03D290ED0A0A80ED0C0A90ED0C0AF9
:1031500070470000B0EE402AF0EE602A32EE620ABC
:10316000F0EE400A00BFB0EEC10A9FED483AB4EE5F
:10317000C30AF1EE10FA3AD245490978012906D17D
:103180000021434A11709FED430A80ED030A90ED40
:10319000000A60EE201A90ED030A30EE200A80ED5E
:1031A000030A90ED030A90ED063AB4EEC30AF1EE7D
:1031B00010FA04D290ED060A80ED030A0CE090EDBF
:1031C000030A90ED073AB4EEC30AF1EE10FA03DDFC
:1031D00090ED070A80ED030A90ED033AD0ED013A35
:1031E000B0EE610A03EE230A80ED0C0A2BE0012108
:1031F000274A117090ED000A60EE201A90ED030A44
:1032000030EE200A80ED030A90ED030A90ED063AB5
:10321000B4EEC30AF1EE10FA04D290ED060A80ED86
:10322000030A0CE090ED030A90ED073AB4EEC30AEE
:10323000F1EE10FA03DD90ED070A80ED030A31EE9E
:10324000810A80ED0C0A90ED0C0A90ED0D3AB4EE77
:10325000C30AF1EE10FA04DD90ED0D0A80ED0C0AC0
:1032600010E090ED0C0A90ED0D3AB1EE433AB4EE59
:10327000C30AF1EE10FA05D290ED0D0AB1EE400A44
:1032800080ED0C0A90ED0C0A70470000CDCCCC3DCF
:10329000F10100200000000070EE600A90ED000ACD
:1032A00020EE200AD0ED031A90ED012A40EE821A9A
:1032B000C0ED031AD0ED020A60EE810A90ED041A07
:1032C000B4EEC01AF1EE10FA02DD90ED040A08E047
:1032D00090ED051AB4EEC01AF1EE10FA01D290ED9D
:1032E000050A90ED031AD0ED061AB4EEE11AF1EEDC
:1032F00010FA04D290ED061A80ED031A0CE090ED5E
:10330000031AD0ED071AB4EEE11AF1EE10FA03DD5C
:1033100090ED071A80ED031A90ED081AB4EEE01A4A
:10332000F1EE10FA02DDD0ED080A08E090ED091A7E
:10333000B4EEE01AF1EE10FA01D2D0ED090A90EDE8
:10334000031A31EE000A30EE200A80ED0C0A90EDEF
:103350000C0AD0ED0B0AB4EEE00AF1EE10FA04DD2F
:1033600090ED0B0A80ED0C0A0CE090ED0C0AD0ED0C
:103370000A0AB4EEE00AF1EE10FA03D290ED0A0A5E
:1033800080ED0C0A90ED0C0A70477047FEF71CFCAC
:1033900002F044FD00F092FEFEF71AF8FEF782FB01
:1033A000FDF70CFC01F0A8FE01F09EFF05F01EFCED
:1033B0004FF4612002F092FAD34802F02BFB4FF455
:1033C000613002F0AFFB4FF4E13002F01FFCFEF77A
:1033D00035F90A2003F06CFF01F0ECFE01F0B8FFB4
:1033E000FDF7DCF804F030FA0A2003F061FF02F088
:1033F0001FFEDFF81883C64DDFF818A3C64E4FF046
:10340000EE094FF0010B4FF46E070024C34801781A
:103410000129FBD10470E879401CC0B2E87164282E
:1034200038D3EC71BE490878012807D1BD4A10781D
:10343000012803D114700C70FEF722F8BA4890F8F6
:103440002402032801D105F007F998ED010ADFED08
:10345000B70A20EE200ABCEEC00A10EE100A6881FE
:10346000AB4910310870000A4870A9480421103097
:1034700002F090F9AE49D8F804000844AD498842FA
:1034800002D285F801B005E0A878012802D1CAF877
:1034900034406C70A8480078012801D1FDF786F807
:1034A000FDF776FA00F0D8F9FEF756F9A348B0F820
:1034B0009C00012828D1B8F818004FF49671401CE0
:1034C00080B2A8F8180088421ED3A8F8181098F8FF
:1034D0001A00012818D10420FDF798FE9849D8F861
:1034E000140088420BDD98F81E00012803D0032049
:1034F000FDF7CCF906E00220FDF7C8F902E0002054
:10350000FDF7C4F9FFF72EFC98F82300012801D13C
:1035100002F0F6FBFEF7EAFAFDF7F8FEE878401C49
:10352000C0B2E870052815D3EC708648B0F90400E5
:10353000012801D040B10DE02879C8280AD2401CEA
:1035400028716871A87105E0287918B1401E2871AA
:103550006871A8717C48017800297FF457AF80F822
:1035600000B07848B0F90400012801D1697809B1A8
:10357000D8B377E0A8796979000440EA0120297975
:103580000843E860714931607060B060F06030619C
:1035900071616F483062B062F062706328892828D8
:1035A00010D2287810B1012807D055E0C6F8249031
:1035B000C6F81C903463B4614EE07462F461376302
:1035C000B76149E0502811D0782814D0A02823D022
:1035D000642826D0C82836D0B0F5FA7F3CD32C8199
:1035E000287878B3012836D036E039E07462F46187
:1035F0003463B46130E0287810B1012807D02BE0A3
:10360000C6F82490C6F81C903463B46124E0746258
:10361000F4613763B7611FE07462F4613463B461CD
:103620001AE0287810B1012807D015E0C6F82490D8
:10363000C6F81C903463B4610EE07462F4613763C1
:10364000B76109E004E07462F4613463B46103E0DB
:1036500085F800B000E02C702889401C28814DE0DE
:10366000687818B16878012817D047E0A879697997
:10367000000440EA012029790843E8603460706062
:10368000B060F06030617461B461F461346274629E
:10369000B462F4623463746330E02889401C80B201
:1036A0002881FA282AD32C81A87810B1012814D0B7
:1036B00024E0C820CAF8340085F802B03460746091
:1036C000B460F46034617461B761F7613462776249
:1036D000B462F4623763746310E0CAF83440AC70CB
:1036E00034607460B460F46034617461B461F46136
:1036F00034627462B462F462346374630E21064807
:1037000004F030FA82E60000A0860100581600207E
:10371000540000200050014010140020240000201C
:103720007000002072000020DC1600200000C8425B
:10373000FFFF4FBFFFFF2F004F000020900F002022
:103740000000C841C01600206800002000161600C6
:10375000323232002DE9F041034600253C483D4C11
:103760004FF40051002B10D0012B12D02246022B17
:10377000128812D0032B1DD04FF4967740F2DC56FE
:10378000042B26D0052B3BD056E003F069FF2580A3
:1037900052E003F063FF25804EE0642A02D203F07A
:1037A0005DFF49E002D103F05BFF45E0C82A43D347
:1037B000258041E0642A02D203F050FF3CE002D1B0
:1037C00003F04EFF38E040F21450824234D325809B
:1037D00032E0642A02D203F041FF2DE002D103F06F
:1037E0003FFF29E0C82A04D0BA4205D103F038FFD0
:1037F00022E003F033FF1FE0B2421DD325801BE01F
:10380000642A02D203F02AFF16E002D103F028FF57
:1038100012E0C82A04D0BA4205D103F021FF0BE020
:1038200003F01CFF08E0B2F5C87F0AD0B2F5FA7FBA
:103830000AD0B24200D325802088401C2080BDE8F9
:10384000F08103F00BFFF7E703F00AFFF4E7000055
:10385000001001400C0000202DE9F05F2DED068BDB
:10386000FD48FE4902780878DFEDFD9A9FEDFD8B5B
:103870009FEDFE9A0025FE4F012A97ED030A17D00F
:10388000012815D0FB49C888401C80B2C880962802
:103890007ED34FF4FA70C880B7F90000002878DDB5
:1038A000A0F1010000B23880002800DA3D8079E301
:1038B000F14E0124B6EE00AA01286BD1EC48203865
:1038C00001780F2967D1417E0029FBD183784178A7
:1038D00003F0070241EA022CA0F11801A1F800C090
:1038E000C2784FEA82684FEA585848EAD3034B80BF
:1038F00090F8058090F804A04FEAC8794FEA59592A
:1039000049EA8A0949EA92128A8082794FEA027961
:103910004FEA595949EA5808A1F8068090F80790EB
:103920004FEA49684FEA585848EA12120A8190F85B
:10393000098090F808B04FEA887A4FEA5A5A4AEA62
:103940004B0A4AEAD919A1F80A9090F80A904FEA6E
:10395000C96A4FEA5A5A4AEA9808A1F80C8090F8C6
:103960000B804FEAC80848EA5918A1F80E8090F871
:103970000D9090F80C8009F0070A48EA0A28A1F88F
:10398000108090F80E804FEA886A4FEA5A5A03E096
:1039900058E100E3D4E0ABE04AEAD909A1F812907B
:1039A00090F8109090F80FB04FEAC97A4FEA5A5A3F
:1039B0004AEA8B0A4AEA9818A1F8148090F8118014
:1039C0004FEA08784FEA585848EA5908A1F8168093
:1039D0000570A3F2FF33584200EE900AF8EEE00AB9
:1039E00060EE8A0AFDEEE00A10EE900A00B238801E
:1039F000ACF2FF3CCCF1000100EE901AF8EEE00AC8
:103A000060EE8A0AFDEEE00A10EE901A798040F22C
:103A100014518A4201D9BC8000E0BD80B2F52F7FED
:103A200002D2747786F8225000F10E016FF00E0872
:103A3000DFED92AA1C2919D83D8079EE400A00EEEC
:103A4000AA0A87ED030A10EE100A06F095F841EC79
:103A5000100B02F0BBFD53EC182B51EC100B05F0D2
:103A6000FBFF24D287ED039A3D7620E00F280EDD80
:103A70000F3800B2388000EE900AF8EEE00A70EEDF
:103A8000C00A00EEAA0A87ED030A3C760FE0404523
:103A90000DDA0F3000B2388000EE900AF8EEE00A3E
:103AA00070EEC00A00EEAA0A87ED030A3C76B7F969
:103AB000020000F10E011C291BD87D8097ED050A3C
:103AC00079EE400A00EEAA0A87ED050A10EE100A08
:103AD00006F052F841EC100B02F078FD53EC182B75
:103AE00051EC100B05F0B8FF28D287ED059A7D76D2
:103AF00024E00F2810DD0F3800B2788000EE100AA5
:103B0000F8EEC00A97ED050A70EEC00A00EEAA0AA8
:103B100087ED050A7C7611E040450FDA0F3000B2E0
:103B2000788000EE100AF8EEC00A97ED050A70EEF4
:103B3000C00A00EEAA0A87ED050A7C7647480570A0
:103B40004548017801297DD105704A49CD80DFF8CB
:103B500030810323DFF82CC198F800004FF0C8092A
:103B6000202807D198F801200F2A03D198F80E20B9
:103B7000022A02D0202866D005E298F80A00FA2826
:103B800002D9747786F8225098F80B00FA2801D9E8
:103B90000A7892B10A2800D20D7098F80400803893
:103BA0003880B27F012A11D098F80520803A7A80B7
:103BB00098F80820022A0ED012E00C70B07F18B1DD
:103BC0000128EAD1B577E8E7B477E6E798F803206B
:103BD000803A7A80ECE7B1F802A0BAF1000F09D080
:103BE000022A04D0B1F802A0BAF1030F04D0042ACB
:103BF0000DD011E04B8018E04D80B7F9041011B1E1
:103C0000012902D011E0BC800FE0BD800DE0B1F8C9
:103C100004A0BAF1000F46D0042A02D08B88032BEF
:103C200043D0012A52D0CCF83450C11D6FF00706A2
:103C30000E2954D83D8097ED030A79EE400A00EE34
:103C40008A0A01E0A3E1BAE087ED030A10EE100A48
:103C500005F092FF18E00000120000201300002081
:103C6000CDCCCC3D000000E0E2361A3F0000000061
:103C7000C01600209000002058160020CDCC4C3DEE
:103C8000740900200050014041EC100B02F09EFC32
:103C900053EC182B51EC100B05F0DEFE46D287EDED
:103CA000039A3D7642E08B80BFE78D80E84A7169D8
:103CB000914204DA9FEDE70A86ED050AB5E79142E5
:103CC000B3DDB3EE040A86ED050AAEE7CCF8349016
:103CD00096F822100029A8D186F82240A5E7F5EE33
:103CE000000A082810DD083800B2388000EE100AFB
:103CF000B8EEC01A97ED030A31EE401A01EE200A21
:103D000087ED030A3C7611E0B0420FDA083000B2CA
:103D1000388000EE100AB8EEC01A97ED030A31EEB3
:103D2000401A01EE200A87ED030A3C76B7F902003B
:103D3000C11D0E291DD87D8097ED050A79EE400A38
:103D40009FEDC51A00EE810A87ED050A10EE100AF4
:103D500005F012FF41EC100B02F038FC53EC182B6D
:103D600051EC100B05F078FE02D287ED059A7D76B6
:103D700009E1082810DD083800B2788000EE100A4A
:103D8000F8EEC00A97ED050A70EEC00A00EEA90A27
:103D900087ED050A7C76F6E0B0420FDA083000B213
:103DA000788000EE100AF8EEC00A97ED050A70EE72
:103DB000C00A00EEA90A87ED050A7C76E3E098F8D0
:103DC00001000F2870D198F80E0066286CD198F881
:103DD0000500388098F80400788098F80200B880D0
:103DE00098F80800022801D14A883AB1022802D086
:103DF0004A88032A04D0042804D005E04B800CE054
:103E00004D800AE08A885AB3042802D08A88032A9F
:103E100028D001283DD0CCF83450B7F90000011D5E
:103E20009FED8E8B082940D83D8097ED030A79EEEF
:103E3000400A00EEA90A87ED030A10EE100A05F009
:103E40009BFE41EC100B02F0C1FB53EC182B51EC24
:103E5000100B05F001FE4ED287ED039A3D764AE045
:103E60008B80DAE78D807F497069884207DAB2EE8D
:103E7000080A86ED050A0120FCF708FDCDE7884217
:103E8000CBDDB2EE000A86ED050A0020FCF7FEFC51
:103E9000C3E7CCF83490707F0028BED075777248A5
:103EA000858072488580B8E746E0052810DD401F10
:103EB00000B2388000EE100AF8EEC00A97ED030A4F
:103EC00070EEC00A00EE8A0A87ED030A3C7612E023
:103ED00010F1050F0FDA401D00B2388000EE100A15
:103EE000F8EEC00A97ED030A70EEC00A00EE8A0AE7
:103EF00087ED030A3C76B7F9020000F1180130297A
:103F00001BD87D8097ED050A79EE400A00EEA90ADC
:103F100087ED050A10EE100A05F02EFE41EC100B9D
:103F200002F054FB53EC182B51EC100B05F094FDF0
:103F300029D287ED059A7D7625E0192810DD1938FC
:103F400000B2788000EE100AF8EEC00A97ED050A7C
:103F500070EEC00A00EE8A0A87ED050A7C7612E050
:103F600010F1190F0FDA193000B2788000EE100A44
:103F7000F8EEC00A97ED050A70EEC00A00EE8A0A54
:103F800087ED050A7C7688F8015088F80050BDEC72
:103F9000068BBDE8F09F05DA401C00B2388000288F
:103FA00000DD3D80B7F900009FED311A00EE900A68
:103FB000F8EEE00A70EEC00A00EE810A87ED030A0F
:103FC00010EE100A05F0D8FD41EC100B02F0FEFADD
:103FD00053EC182B51EC100B05F03EFD02D287ED8F
:103FE000039A3D76B7F90200002808DDA0F1010030
:103FF0007880B7F90000002808DA7D8006E005DA4D
:10400000401C00B27880002800DD7D80B7F90200F6
:1040100000EE100AF8EEC00A97ED050A70EEC00A2D
:1040200000EEA90A87ED050A10EE100A05F0A4FDBE
:1040300041EC100B02F0CAFA53EC182B51EC100BA8
:1040400005F00AFDA3D287ED059A7D769FE7000073
:104050000000C84100002042CDCC4C3F000000E0F1
:104060004D62503F00002041641A0020AC1A00202D
:104070000AD7233C70B5104E1021304603F0EEFAFB
:10408000902000F027FA002000F024FA002000F031
:1040900021FA002000F01EFA002000F01BFA04466E
:1040A000002000F017FA05461021304603F0D8FA38
:1040B00045EA042070BD00000018014070B50024DE
:1040C000002548212D48FCF762F948212C48FCF7CF
:1040D0005EF9A0212B48FCF75AF92E2200212A482C
:1040E00001F014FF28482E212E38FCF72EF92C2140
:1040F0000020254A06E0135C2344DCB22B19DDB214
:10410000401C80B28842F6D31F492E22A1F12E0016
:10411000FCF7D6F81C4A1D4E2E3A92F82C00A0420D
:1041200024D192F82D00A84220D192F8280001282D
:104130001BD192F82900012817D1508D012814D1E4
:104140000121B176124B19700C4B59800C4C6180D7
:10415000918C1980D18C21800A49A1F89C001068AB
:104160000860D06848609069886070BD06482E215C
:104170002E38FCF7EAF80020B07670BD641A0020F3
:10418000AC1A0020900F00206C1000205816002060
:10419000980100202DE9F041284D2021284603F008
:1041A0005DFA2748007820B101280ED002283DD1C1
:1041B00020E0002000F0A2F8C4B2002000F09EF839
:1041C000C0B240EA0420440830E048F2200000F089
:1041D000BBF81C4E306820F430003060FF2000F047
:1041E000B3F8C0F30E00C0F50044306840F410008E
:1041F00030601BE0134A082114321160161F316031
:104200000020104F4FF6FF730837116003EA440493
:10421000D7F800C05FEACC6C01D5641CA4B2316051
:10422000401CC0B20E28F0D303EA440420212846E3
:1042300003F016FA2046BDE8F081000000140140AA
:104240002C000020000C01402DE9F041284D802178
:10425000284603F003FA2748007820B101280ED041
:1042600002283DD120E0002000F048F8C4B2002030
:1042700000F044F8C0B240EA0420440830E048F2BC
:10428000200000F061F81C4E306820F430003060EF
:10429000FF2000F059F8C0F30E00C0F5004430686C
:1042A00040F4100030601BE0134A08211432116002
:1042B000161F31600020104F4FF6FF730837116052
:1042C00003EA4404D7F800C05FEACC6C01D5641C53
:1042D000A4B23160401CC0B20E28F0D303EA4404FB
:1042E0008021284603F0BCF92046BDE8F08100009B
:1042F000001401402C000020000C014070B5054660
:104300000024104E05E0641CA4B2C82C01D9002082
:1043100070BD0221304603F08FFC0028F3D0F56019
:104320000024354605E0641CA4B2C82C01D9002045
:1043300070BD0121284603F07FFC0028F3D0E86817
:1043400080B270BD0030014070B505460024104EAB
:1043500005E0641CA4B2C82C01D9002070BD022164
:10436000304603F069FC0028F3D0F56000243546A0
:1043700005E0641CA4B2C82C01D9002070BD012145
:10438000284603F059FC0028F3D0E86880B270BDDD
:10439000003001402DE9FF410121324802F0FCFECE
:1043A00030480121801C02F0F7FE684603F070F9E6
:1043B00001212D4803F0D2F901212C4803F0CEF958
:1043C00000258DF8045001248DF8074018208DF841
:1043D000050008208DF806004FF4E0500090694673
:1043E000234803F060F98DF807408DF80450102041
:1043F0008DF80600C602009604208DF805001D4FBA
:104400006946384603F04FF93146384603F028F93B
:10441000194E0021304603F00AFC0121174802F032
:10442000BBFE02A803F0F8FB8DF808508DF8094098
:104430008DF80A408DF80B508DF80C508DF80D401A
:104440008DF80E408DF80F4002A9304603F0FBFBBB
:104450000121304603F0EBFB0A2002F029FFBDE802
:10446000FF81000002001800030418280203103026
:104470000010014000080140003C00400F001C00FB
:104480002DE9F04105460024114F06E0641CE4B21A
:10449000C82C02D90020BDE8F0810221384603F083
:1044A000CBFB0028F2D00A4E0C363560002405E024
:1044B000641CE4B2C82C01D90020ECE70121384685
:1044C00003F0BAFB0028F3D03068C0B2E3E7000085
:1044D000003C004070B5054600244FF0402605E042
:1044E000641CE4B2C82C01D9002070BD0221304602
:1044F00003F0A2FB0028F3D0F5600024354605E068
:10450000641CE4B2C82C01D9002070BD01212846EA
:1045100003F092FB0028F3D0E868C0B270BD70478A
:1045200010B501808278002A02D1012282700181B7
:1045300002894FF4FA434FF440749A4206D9A142DB
:1045400004D28A1A02F5004242600BE0A24207D26E
:10455000994205D9C1F500431A445242426001E034
:104560008A1A4260018190ED010ADFED100A9FED89
:10457000101AB8EEC00A20EE200AC0EE010AC0ED03
:10458000040A90ED050AB5EE001A70EEC00A00EEBE
:10459000810A80ED050AD0ED060A9FED061A30EE7D
:1045A000600A40EE010AC0ED060A10BD0000343C6E
:1045B00017B75139CDCCCC3C10B50AA0FBF774FE2F
:1045C0001548164C90F82402032804D16288144937
:1045D000114804F0A3FB6188114801F0FBF80020AA
:1045E000608010BD0D0AD5FDD4DAD0A3D7BC2CC78E
:1045F000EBC4CDD0C4B5C8B4FD2E2E2E2E2E2E2E3B
:104600002E2E2E2E2E2E2E2E2E2E2E2E2E2E2E2ECA
:104610002E2E2E0D0A000000DC1600201A000020AD
:104620007C0B002010B50AA0FBF73EFE1648174C85
:1046300090F82402032804D162881549124804F036
:104640006DFB6188124801F0C5F80020608010BD44
:104650000D0AD5FDD4DAD3B2BCFED7D4BCEC2CC73E
:10466000EBC4CDD0C4B5C8B4FD2E2E2E2E2E2E2ECA
:104670002E2E2E2E2E2E2E2E2E2E2E2E2E2E2E2E5A
:104680002E2E2E0D0A000000DC1600201A0000203D
:104690007C0B0020F648008800287DD1F548008872
:1046A000401C80B2F3490880F3490978884210DB46
:1046B0000020F0490880F148008818B90120EF492E
:1046C000088006E0ED480088012802D10020EB496F
:1046D0000880EA480088E8BBE94890ED050AE94807
:1046E000D0ED000AB4EEE00AF1EE10FA19D2E44877
:1046F00090ED050AE448D0ED000A30EE200AE048CB
:1047000080ED050A90ED050ADE48D0ED000AB4EE12
:10471000E00AF1EE10FA04DD90ED000AD84880EDD1
:10472000050AD74890ED060AB5EEC00AF1EE10FA78
:104730005FDD90ED060AD448D0ED000A30EE600A45
:10474000CF4880ED060A90ED060AB5EEC00AF1EEFC
:1047500010FA00E005E04CD29FEDCC0A80ED060A8D
:1047600047E0C6480088012843D1C54890ED060AB5
:10477000C448D0ED000AB4EEE00AF1EE10FA1BD204
:10478000BF4890ED060AC048D0ED000A30EE200A7E
:10479000BB4880ED060A00E03FE090ED060AB9480C
:1047A000D0ED000AB4EEE00AF1EE10FA04DD90ED6F
:1047B000000AB34880ED060AB14890ED050AB5EE4F
:1047C000C00AF1EE10FA14DD90ED050AAE48D0ED06
:1047D000000A30EE600AAA4880ED050A90ED050A4D
:1047E000B5EEC00AF1EE10FA03D29FEDA80A80EDF3
:1047F000050AA7480088401C80B2A5490880A54941
:104800000988884208DB0020A149088001209849D6
:104810000880002097490880A4E195480088012875
:104820007DD194480088401C80B2924908809A4902
:104830000978884210DB00208E4908808F48008864
:1048400018B901208D49088006E08C4800880128AD
:1048500002D100208949088088480088F0BB884838
:1048600090ED050A8748D0ED000AB4EEE00AF1EEBB
:1048700010FA19D2824890ED050A8348D0ED000A5B
:1048800030EE200A7E4880ED050A90ED050A7D484D
:10489000D0ED000AB4EEE00AF1EE10FA04DD90ED7E
:1048A000000A774880ED050A754890ED060AB5EED6
:1048B000C00AF1EE10FA5FDD90ED060A7248D0ED05
:1048C000000A30EE600A6E4880ED060A90ED060A96
:1048D000B5EEC00AF1EE10FA4ED200E004E09FED12
:1048E0006B0A80ED060A47E064480088012843D13E
:1048F000634890ED060A6348D0ED000AB4EEE00A82
:10490000F1EE10FA1BD25E4890ED060A5E48D0ED3B
:10491000000A30EE200A5A4880ED060A00E03FE027
:1049200090ED060A5748D0ED000AB4EEE00AF1EE29
:1049300010FA04DD90ED000A514880ED060A504857
:1049400090ED050AB5EEC00AF1EE10FA14DD90ED17
:10495000050A4D48D0ED000A30EE600A484880ED67
:10496000050A90ED050AB5EEC00AF1EE10FA03D281
:104970009FED460A80ED050A45480088401C80B23C
:104980004349088043490988884208DB00204049A0
:104990000880022036490880002036490880E1E07E
:1049A00033480088022862D132480088401C80B217
:1049B0003049088039490978884210DB00202D49A8
:1049C00008802E48008818B901202C49088006E08C
:1049D0002A480088012802D1002028490880274859
:1049E0000088E8BB264890ED050A2648D0ED000A6D
:1049F000B4EEE00AF1EE10FA19D2214890ED050A62
:104A00002148D0ED000A30EE200A1D4880ED050A4D
:104A100090ED050A1B48D0ED000AB4EEE00AF1EE75
:104A200010FA04DD90ED000A154880ED050A1448DF
:104A300090ED060AB5EEC00AF1EE10FA76DD90EDC3
:104A4000060A1148D0ED000A30EE600A0C4880EDED
:104A5000060A90ED060AB5EEC00AF1EE10FA00E083
:104A60001EE063D29FED090A80ED060A5EE079E060
:104A7000CC010020C6010020DC010020CA0100207A
:104A8000F41A0020EC010020E401002000000000E6
:104A9000C8010020E0010020DD010020DE0100202F
:104AA00036480088012841D1354890ED060A35483E
:104AB000D0ED000AB4EEE00AF1EE10FA19D2304857
:104AC00090ED060A3048D0ED000A30EE200A2C485E
:104AD00080ED060A90ED060A2A48D0ED000AB4EEF1
:104AE000E00AF1EE10FA04DD90ED000A244880EDB2
:104AF000060A234890ED050AB5EEC00AF1EE10FA59
:104B000014DD90ED050A2048D0ED000A30EE600A71
:104B10001B4880ED050A90ED050AB5EEC00AF1EEDE
:104B200010FA03D21FED270A80ED050A1748008806
:104B3000401C80B21549088015490988884211DB5C
:104B400000201249088003201249088000201249E1
:104B500008801FED320A0A4880ED050A1FED350A6C
:104B600080ED060A0D4800880D490988884204DA5C
:104B70000A480088401C094908807047CA01002083
:104B8000F41A0020EC010020E4010020C8010020FC
:104B9000E0010020CC010020C6010020D801002047
:104BA000DA010020FE48008800287DD1FD480088F9
:104BB000401C80B2FB490880FB490978884210DB21
:104BC0000020F8490880F948008818B90120F74901
:104BD000088006E0F5480088012802D10020F3494A
:104BE0000880F2480088E8BBF14890ED050AF148DA
:104BF000D0ED000AB4EEE00AF1EE10FA19D2EC485A
:104C000090ED050AEC48D0ED000A30EE200AE848A5
:104C100080ED050A90ED050AE648D0ED000AB4EEF5
:104C2000E00AF1EE10FA04DD90ED000AE04880EDB4
:104C3000050ADF4890ED060AB5EEC00AF1EE10FA5B
:104C40005FDD90ED060ADC48D0ED000A30EE600A28
:104C5000D74880ED060A90ED060AB5EEC00AF1EEDF
:104C600010FA00E005E04CD29FEDD40A80ED060A70
:104C700047E0CE480088012843D1CD4890ED060A90
:104C8000CC48D0ED000AB4EEE00AF1EE10FA1BD2E7
:104C9000C74890ED060AC848D0ED000A30EE200A59
:104CA000C34880ED060A00E03FE090ED060AC148E7
:104CB000D0ED000AB4EEE00AF1EE10FA04DD90ED5A
:104CC000000ABB4880ED060AB94890ED050AB5EE2A
:104CD000C00AF1EE10FA14DD90ED050AB648D0EDE9
:104CE000000A30EE600AB24880ED050A90ED050A30
:104CF000B5EEC00AF1EE10FA03D29FEDB00A80EDD6
:104D0000050AAF480088401C80B2AD490880AD4913
:104D10000988884208DB0020A94908800120A049B1
:104D2000088000209F490880A7E19D48008801284D
:104D30007DD19C480088401C80B29A490880A249D5
:104D40000978884210DB002096490880974800883F
:104D500018B901209549088006E094480088012888
:104D600002D100209149088090480088F0BB90480B
:104D700090ED050A8F48D0ED000AB4EEE00AF1EE9E
:104D800010FA19D28A4890ED050A8B48D0ED000A36
:104D900030EE200A864880ED050A90ED050A854828
:104DA000D0ED000AB4EEE00AF1EE10FA04DD90ED69
:104DB000000A7F4880ED050A7D4890ED060AB5EEB1
:104DC000C00AF1EE10FA5FDD90ED060A7A48D0EDE8
:104DD000000A30EE600A764880ED060A90ED060A79
:104DE000B5EEC00AF1EE10FA4ED200E004E09FEDFD
:104DF000730A80ED060A47E06C480088012843D119
:104E00006B4890ED060A6B48D0ED000AB4EEE00A5C
:104E1000F1EE10FA1BD2664890ED060A6648D0ED16
:104E2000000A30EE200A624880ED060A00E03FE00A
:104E300090ED060A5F48D0ED000AB4EEE00AF1EE0C
:104E400010FA04DD90ED000A594880ED060A584832
:104E500090ED050AB5EEC00AF1EE10FA14DD90ED02
:104E6000050A5548D0ED000A30EE600A504880ED42
:104E7000050A90ED050AB5EEC00AF1EE10FA03D26C
:104E80009FED4E0A80ED050A4D480088401C80B217
:104E90004B4908804B490988884208DB0020484973
:104EA000088002203E49088000203E490880E4E056
:104EB0003B4800880228FAD13A480088401C80B25A
:104EC0003849088041490978884210DB002035497B
:104ED00008803648008818B901203449088006E067
:104EE00032480088012802D10020304908802F482C
:104EF0000088E8BB2E4890ED050A2E48D0ED000A48
:104F0000B4EEE00AF1EE10FA19D2294890ED050A44
:104F10002948D0ED000A30EE200A254880ED050A28
:104F200090ED050A2348D0ED000AB4EEE00AF1EE58
:104F300010FA04DD90ED000A1D4880ED050A1C48BA
:104F400090ED060AB5EEC00AF1EE10FA76DD90EDAE
:104F5000060A1948D0ED000A30EE600A144880EDC8
:104F6000060A90ED060AB5EEC00AF1EE10FA00E06E
:104F700005E063D29FED110A80ED060A5EE00B4862
:104F8000008801285AD10A4890ED060A0948D0ED58
:104F9000000AB4EEE00AF1EE10FA32D2044817E04B
:104FA000D4010020CE010020DC010020D20100202D
:104FB0003C1B0020EC010020E80100200000000064
:104FC000D0010020E2010020DD010020DE010020F0
:104FD00090ED060A2948D0ED000A30EE200A284854
:104FE00080ED060A90ED060A2648D0ED000AB4EEE0
:104FF000E00AF1EE10FA04DD90ED000A204880EDA1
:10500000060A1F4890ED050AB5EEC00AF1EE10FA47
:1050100014DD90ED050A1948D0ED000A30EE600A63
:10502000174880ED050A90ED050AB5EEC00AF1EECD
:1050300010FA03D21FED1F0A80ED050A12480088FE
:10504000401C80B21049088010490988884214DB4E
:1050500000200D49088003200D49088000200D49DB
:1050600008801FED2A0A064880ED050A1FED2D0A6B
:1050700080ED060A0120084908707047E801002009
:105080003C1B0020EC010020D0010020E2010020A8
:10509000D4010020CE010020F00100207047000064
:1050A0001248016841F4700101601148016841F043
:1050B0000101016001688907FCD5416821F0030105
:1050C0004160416811F00C0FFBD10168094A1140A1
:1050D00001600021416001634FF41F0181600349B9
:1050E0004FF00060803908607047000088ED00E0F4
:1050F00000100240FFFFF2FE7FB5294801F094FF47
:105100000121284802F048F826480121113802F010
:1051100043F800248DF8044001258DF80750042041
:105120008DF8050008208DF80600400100906946C2
:105130001D4802F0B8FA1A481C491D4E4068B0FBE1
:10514000F1F2521E40F2F311304603F0FBF8002159
:10515000304603F03BF902A803F0F0F906218DF880
:1051600008108DF809408DF80B408DF80D5002AAFB
:105170000021304603F077F901220021304603F088
:1051800015F901220021304603F051F97463012121
:10519000304603F0E1F90121304603F021F97FBDEB
:1051A0007C0F002014001800000C014040420F004A
:1051B00000500140F0B587B0464801F035FF0121AD
:1051C000454801F0E9FF44480121401F01F0E4FF98
:1051D0000121424802F0C2FA4FF47C5005900820A9
:1051E0008DF81A0000258DF8185004208DF819004C
:1051F00001248DF81B4005A9394802F054FA394FB3
:10520000002241F27071384603F09CF802213846C2
:1052100003F0E1F803A803F091F907208DF80C00E2
:105220008DF811408DF80F508DF80D508DF812400B
:105230008DF810508DF80E4003AA0021384603F077
:1052400012F9284E2C36306800214208384603F007
:10525000ADF803AA0221384603F005F930680221AF
:105260004208384603F0A2F803AA0421384603F0A6
:10527000FAF8306804214208384603F097F803AA88
:105280000621384603F0EFF801220621384603F0E4
:105290008DF801A803F081F88DF80A508DF80740C9
:1052A00030208DF804008DF809408DF808408DF805
:1052B00005408DF8064001A9384603F04AF801215F
:1052C000384603F044F90121384603F089F807B065
:1052D000F0BD00007C0F00200B0018000304002428
:1052E00000180140002C014010B5154801F09CFE4B
:1052F0000121144801F050FF11481349134C406834
:10530000B0FBF1F2521E40F2E731204603F01AF8EA
:105310000021204603F05FF801221146204603F0E9
:105320007AF8032002F07EFA00220221372002F0F0
:105330003DFA2046BDE81040012103F051B80000BD
:105340007C0F002005001C0040420F0000140040AC
:10535000F0B587B0574801F067FE0121564801F0CB
:105360001BFF554801210B3801F016FF524801215F
:105370000A3801F011FF50480121093801F00CFFF3
:105380008020059008268DF81A6000258DF81850A9
:1053900004278DF8197001248DF81B4005A9474892
:1053A00002F081F9032005908DF81A608DF81850ED
:1053B0008DF819708DF81B4005A9414802F073F96A
:1053C0004FF4E07005908DF81A608DF818508DF844
:1053D00019708DF81B4005A93A4802F064F93A4F5C
:1053E000002241F27071384602F0ACFF02213846CB
:1053F00002F0F1FF03A803F0A1F807208DF80C00DC
:105400008DF811408DF80F508DF80D408DF8124039
:105410008DF810508DF80E4003AA0021384603F095
:1054200022F8294E2C36306800214208384602F016
:10543000BDFF03AA0221384603F015F830680221A7
:105440004208384602F0B2FF03AA0421384603F0AE
:105450000AF8306804214208384602F0A7FF03AA80
:105460000621384602F0FFFF01220621384602F0ED
:105470009DFF01A802F091FF8DF80A508DF80740BA
:1054800030208DF804008DF809408DF808408DF823
:1054900005408DF8064001A9384602F05AFF012167
:1054A000384603F054F80121384602F099FF07B05E
:1054B000F0BD00007C0F00200D0018000008014026
:1054C000000C014000100140003401407FB5012173
:1054D000334801F061FE32480121801C01F05CFE7E
:1054E00001214FF4C01001F057FE684602F0D0F8D9
:1054F00001212C4802F032F901212B4802F02EF94B
:1055000000258DF8045001248DF8074018268DF8E9
:10551000056008208DF80600382000906946234871
:1055200002F0C1F88DF807408DF8045010208DF876
:105530000600A02000908DF805601D4E694630469B
:1055400002F0B1F8A021304602F08AF8194E00218D
:10555000304602F06CFB12480121093001F01CFEBC
:1055600002A802F059FB8DF808508DF8094003207D
:105570008DF80A008DF80B508DF80C408DF80D5009
:105580008DF80E408DF80F4002A9304602F05BFB0B
:105590000121304602F04BFB0A2001F089FE7FBD5D
:1055A000030018000104102802031030000C014011
:1055B00000140140003001402021014802F021BFC9
:1055C000002C014010B5074C0121204602F01CFFC1
:1055D000002806D00121204602F013FF02490120D5
:1055E000087010BD0014004024000020FEB5012109
:1055F000624801F0D1FD61480121801C01F0CCFD21
:105600005E480121C01D01F0C7FD5C480121083042
:1056100001F0C2FD01214FF4C01001F0BDFD0220D8
:1056200001F0A8FC00221146122002F0BFF801A8E8
:1056300002F02EF803248DF80A406020019001A9A1
:105640004F4802F030F801A802F022F88DF80A4025
:105650003020019001A94B4802F025F8684601F07E
:1056600085F901248DF800408DF8014000258DF862
:105670000250454E6946304601F062F9684601F035
:1056800075F98DF800408DF801408DF802503F4CBF
:105690006946204601F054F90221304601F0ECFA47
:1056A0000221204601F0E8FA002301220E213046B3
:1056B00001F0E8FA002302220F21304601F0E2FA5D
:1056C000002301220521204601F0DCFA00230222FA
:1056D0000621204601F0D6FA01221146304601F09B
:1056E0005AFB01212A4802F039F8012206212046FE
:1056F00001F051FB0121304601F0B9FA012280216D
:10570000304601F0C5F90121304601F0ADF9012123
:10571000304601F0AEF9304601F02FF9304601F085
:1057200031F90028FAD1304601F033F9304601F062
:1057300035F90028FAD10121204601F098FA01221A
:105740008021204601F0A4F90121204601F08CF9C6
:105750000121204601F08DF9204601F00EF9204686
:1057600001F010F90028FAD1204601F012F9204684
:1057700001F014F90028FAD1FEBD00000200180063
:1057800000080140001001400024014000280140B1
:105790000101083070B50D4601462A460A48FAF75D
:1057A0008FFD0121094802F0E1FE094C002120464D
:1057B00001F092FD2946204601F0D3FD012120464B
:1057C00001F08AFD284670BDF40100200038014038
:1057D0001C04024070B50D4601462A460A48FAF7F5
:1057E0006FFD0121094802F0C1FE094C002120464D
:1057F00001F072FD2946204601F0B3FD012120464B
:1058000001F06AFD284670BDF40300200048004006
:105810006C04024010B5144C1021204602F0B8FE72
:10582000002820D01021204602F0AAFE0F4C20466E
:1058300001F094FDC0F1800082B2802A04D20C49AC
:1058400001F5C070FAF73CFD0021204601F044FD4F
:105850008021204601F085FD0121204601F03CFD1C
:1058600004490120C87010BD004C004044040240AF
:10587000F40800201200002010B5144C102120461E
:1058800002F086FE002820D01021204602F078FE8B
:105890000F4C204601F062FDC0F1800082B2802AE8
:1058A00004D20C4901F5E060FAF70AFD0021204618
:1058B00001F012FD8021204601F053FD0121204618
:1058C00001F00AFD04490120087010BD00380140B4
:1058D0000804024074020020120000202DE9FC415F
:1058E000064601212D4801F057FC2C4801210C38B7
:1058F00001F052FC684601F0CBFE01258DF80750FF
:1059000000248DF8044008228DF8062090010090B4
:1059100004208DF80500224F6946384601F0C3FE89
:105920008DF807508DF804408DF80640A8020090CD
:1059300018208DF805006946384601F0B4FE194C70
:1059400000231A463146204602F02AFE0121204655
:1059500002F07CFE0121204602F073FE0121204668
:1059600002F004FE0121204602F0FBFD0121204649
:1059700002F001FE032001F055FF0422032125203F
:1059800001F014FF01220849204602F049FEFBF70E
:105990006BFBFBF779FABDE8FC8100000E001800F4
:1059A000000801400038014004000C0010B5144C00
:1059B0001021204602F0ECFD00281FD010212046C7
:1059C00002F0DEFD0F4C204601F0C8FCC0F1800063
:1059D00082B2802A03D20C490C48FAF771FC0021EC
:1059E000204601F079FC8021204601F0BAFC01211B
:1059F000204601F071FC06490120487010BD0000EE
:105A0000004400403004024074030020A01600202F
:105A1000120000201CB504460121234801F0BCFB04
:105A20000121224801F0B8FB01214FF4C01001F020
:105A3000B3FB01211E4801F091FE684601F028FEEB
:105A400001228DF8072000228DF804208DF8062011
:105A50004022009218228DF805206946154801F071
:105A600022FE2146144C00231A46204602F098FDDF
:105A70000121204602F0E5FD0121204602F071FDE2
:105A80000121204602F077FD032001F0CBFE052224
:105A90000321262001F08AFE01220849204602F057
:105AA000BFFDFBF72DFA1CBD11001C0005001800FE
:105AB0000104142C001401400044004004000C00B8
:105AC00010B5144C1021204602F062FD002820D0B1
:105AD0001021204602F054FD0F4C204601F03EFC00
